{
  "contractName": "CommitRevealLottery",
  "abi": [
    {
      "inputs": [],
      "stateMutability": "nonpayable",
      "type": "constructor"
    },
    {
      "inputs": [],
      "name": "DURATION",
      "outputs": [
        {
          "internalType": "uint256",
          "name": "",
          "type": "uint256"
        }
      ],
      "stateMutability": "view",
      "type": "function"
    },
    {
      "inputs": [],
      "name": "commitCloses",
      "outputs": [
        {
          "internalType": "uint256",
          "name": "",
          "type": "uint256"
        }
      ],
      "stateMutability": "view",
      "type": "function"
    },
    {
      "inputs": [
        {
          "internalType": "address",
          "name": "",
          "type": "address"
        }
      ],
      "name": "commitments",
      "outputs": [
        {
          "internalType": "bytes32",
          "name": "",
          "type": "bytes32"
        }
      ],
      "stateMutability": "view",
      "type": "function"
    },
    {
      "inputs": [
        {
          "internalType": "uint256",
          "name": "",
          "type": "uint256"
        }
      ],
      "name": "lotteryHistory",
      "outputs": [
        {
          "internalType": "address",
          "name": "",
          "type": "address"
        }
      ],
      "stateMutability": "view",
      "type": "function"
    },
    {
      "inputs": [],
      "name": "lotteryId",
      "outputs": [
        {
          "internalType": "uint256",
          "name": "",
          "type": "uint256"
        }
      ],
      "stateMutability": "view",
      "type": "function"
    },
    {
      "inputs": [
        {
          "internalType": "uint256",
          "name": "",
          "type": "uint256"
        }
      ],
      "name": "players",
      "outputs": [
        {
          "internalType": "address",
          "name": "",
          "type": "address"
        }
      ],
      "stateMutability": "view",
      "type": "function"
    },
    {
      "inputs": [],
      "name": "revealCloses",
      "outputs": [
        {
          "internalType": "uint256",
          "name": "",
          "type": "uint256"
        }
      ],
      "stateMutability": "view",
      "type": "function"
    },
    {
      "inputs": [],
      "name": "winner",
      "outputs": [
        {
          "internalType": "address",
          "name": "",
          "type": "address"
        }
      ],
      "stateMutability": "view",
      "type": "function"
    },
    {
      "inputs": [],
      "name": "getBalance",
      "outputs": [
        {
          "internalType": "uint256",
          "name": "",
          "type": "uint256"
        }
      ],
      "stateMutability": "view",
      "type": "function"
    },
    {
      "inputs": [
        {
          "internalType": "bytes32",
          "name": "commitment",
          "type": "bytes32"
        }
      ],
      "name": "enter",
      "outputs": [],
      "stateMutability": "payable",
      "type": "function"
    },
    {
      "inputs": [
        {
          "internalType": "uint256",
          "name": "secret",
          "type": "uint256"
        }
      ],
      "name": "createCommitment",
      "outputs": [
        {
          "internalType": "bytes32",
          "name": "",
          "type": "bytes32"
        }
      ],
      "stateMutability": "view",
      "type": "function"
    },
    {
      "inputs": [],
      "name": "isAlreadyRevealed",
      "outputs": [
        {
          "internalType": "bool",
          "name": "",
          "type": "bool"
        }
      ],
      "stateMutability": "view",
      "type": "function"
    },
    {
      "inputs": [
        {
          "internalType": "uint256",
          "name": "secret",
          "type": "uint256"
        }
      ],
      "name": "reveal",
      "outputs": [],
      "stateMutability": "nonpayable",
      "type": "function"
    },
    {
      "inputs": [],
      "name": "pickWinner",
      "outputs": [],
      "stateMutability": "nonpayable",
      "type": "function"
    },
    {
      "inputs": [],
      "name": "withdrawPrize",
      "outputs": [],
      "stateMutability": "nonpayable",
      "type": "function"
    }
  ],
  "bytecode": "0x60806040523480156200001157600080fd5b506004436200002191906200007d565b60008190555060046000546200003891906200007d565b600181905550620000da565b6000819050919050565b7f4e487b7100000000000000000000000000000000000000000000000000000000600052601160045260246000fd5b60006200008a8262000044565b9150620000978362000044565b9250827fffffffffffffffffffffffffffffffffffffffffffffffffffffffffffffffff03821115620000cf57620000ce6200004e565b5b828201905092915050565b6115f180620000ea6000396000f3fe6080604052600436106100e85760003560e01c80636d6fe2301161008a578063e580f47b11610059578063e580f47b1461029f578063e8fcf723146102ca578063eb88d68814610307578063f71d96cb14610344576100e8565b80636d6fe230146101e3578063bcef097e14610220578063c2ca0ac51461024b578063dfbf53ae14610274576100e8565b80634373fde5116100c65780634373fde51461016e57806348d37a5814610199578063568ab21e146101b05780635d495aea146101cc576100e8565b806312065fe0146100ed5780631be0528914610118578063216af0b414610143575b600080fd5b3480156100f957600080fd5b50610102610381565b60405161010f9190610c8b565b60405180910390f35b34801561012457600080fd5b5061012d610389565b60405161013a9190610c8b565b60405180910390f35b34801561014f57600080fd5b5061015861038e565b6040516101659190610cc1565b60405180910390f35b34801561017a57600080fd5b50610183610436565b6040516101909190610c8b565b60405180910390f35b3480156101a557600080fd5b506101ae61043c565b005b6101ca60048036038101906101c59190610d17565b610681565b005b3480156101d857600080fd5b506101e1610756565b005b3480156101ef57600080fd5b5061020a60048036038101906102059190610d70565b61094f565b6040516102179190610dde565b60405180910390f35b34801561022c57600080fd5b50610235610982565b6040516102429190610c8b565b60405180910390f35b34801561025757600080fd5b50610272600480360381019061026d9190610d70565b610988565b005b34801561028057600080fd5b50610289610b7f565b6040516102969190610dde565b60405180910390f35b3480156102ab57600080fd5b506102b4610ba5565b6040516102c19190610c8b565b60405180910390f35b3480156102d657600080fd5b506102f160048036038101906102ec9190610e25565b610bab565b6040516102fe9190610e61565b60405180910390f35b34801561031357600080fd5b5061032e60048036038101906103299190610d70565b610bc3565b60405161033b9190610e61565b60405180910390f35b34801561035057600080fd5b5061036b60048036038101906103669190610d70565b610bf5565b6040516103789190610dde565b60405180910390f35b600047905090565b600481565b6000805b60038054905081101561042d57600381815481106103b3576103b2610e7c565b5b9060005260206000200160009054906101000a900473ffffffffffffffffffffffffffffffffffffffff1673ffffffffffffffffffffffffffffffffffffffff163373ffffffffffffffffffffffffffffffffffffffff160361041a576001915050610433565b808061042590610eda565b915050610392565b50600090505b90565b60015481565b600460009054906101000a900473ffffffffffffffffffffffffffffffffffffffff1673ffffffffffffffffffffffffffffffffffffffff163373ffffffffffffffffffffffffffffffffffffffff16146104cc576040517f08c379a00000000000000000000000000000000000000000000000000000000081526004016104c390610f7f565b60405180910390fd5b600460006101000a81549073ffffffffffffffffffffffffffffffffffffffff021916905560005b60038054905081101561059557600660006003838154811061051957610518610e7c565b5b9060005260206000200160009054906101000a900473ffffffffffffffffffffffffffffffffffffffff1673ffffffffffffffffffffffffffffffffffffffff1673ffffffffffffffffffffffffffffffffffffffff16815260200190815260200160002060009055808061058d90610eda565b9150506104f4565b50600360006105a49190610c34565b6005600090556004436105b79190610f9f565b60008190555060046000546105cc9190610f9f565b60018190555060003373ffffffffffffffffffffffffffffffffffffffff16476040516105f890611026565b60006040518083038185875af1925050503d8060008114610635576040519150601f19603f3d011682016040523d82523d6000602084013e61063a565b606091505b505090508061067e576040517f08c379a000000000000000000000000000000000000000000000000000000000815260040161067590611087565b60405180910390fd5b50565b662386f26fc100003410156106cb576040517f08c379a00000000000000000000000000000000000000000000000000000000081526004016106c290611119565b60405180910390fd5b600054431061070f576040517f08c379a000000000000000000000000000000000000000000000000000000000815260040161070690611185565b60405180910390fd5b80600660003373ffffffffffffffffffffffffffffffffffffffff1673ffffffffffffffffffffffffffffffffffffffff1681526020019081526020016000208190555050565b60015443101561079b576040517f08c379a0000000000000000000000000000000000000000000000000000000008152600401610792906111f1565b60405180910390fd5b600073ffffffffffffffffffffffffffffffffffffffff16600460009054906101000a900473ffffffffffffffffffffffffffffffffffffffff1673ffffffffffffffffffffffffffffffffffffffff161461082c576040517f08c379a00000000000000000000000000000000000000000000000000000000081526004016108239061125d565b60405180910390fd5b6003808054905060055460001c61084391906112ac565b8154811061085457610853610e7c565b5b9060005260206000200160009054906101000a900473ffffffffffffffffffffffffffffffffffffffff16600460006101000a81548173ffffffffffffffffffffffffffffffffffffffff021916908373ffffffffffffffffffffffffffffffffffffffff160217905550600460009054906101000a900473ffffffffffffffffffffffffffffffffffffffff1660076000600254815260200190815260200160002060006101000a81548173ffffffffffffffffffffffffffffffffffffffff021916908373ffffffffffffffffffffffffffffffffffffffff1602179055506002600081548092919061094890610eda565b9190505550565b60076020528060005260406000206000915054906101000a900473ffffffffffffffffffffffffffffffffffffffff1681565b60005481565b6000544310156109cd576040517f08c379a00000000000000000000000000000000000000000000000000000000081526004016109c49061134f565b60405180910390fd5b6001544310610a11576040517f08c379a0000000000000000000000000000000000000000000000000000000008152600401610a08906113e1565b60405180910390fd5b610a1961038e565b15610a59576040517f08c379a0000000000000000000000000000000000000000000000000000000008152600401610a509061144d565b60405180910390fd5b6000610a6482610bc3565b9050600660003373ffffffffffffffffffffffffffffffffffffffff1673ffffffffffffffffffffffffffffffffffffffff168152602001908152602001600020548114610ae7576040517f08c379a0000000000000000000000000000000000000000000000000000000008152600401610ade906114b9565b60405180910390fd5b60055482604051602001610afc92919061151b565b604051602081830303815290604052805190602001206005819055506003339080600181540180825580915050600190039060005260206000200160009091909190916101000a81548173ffffffffffffffffffffffffffffffffffffffff021916908373ffffffffffffffffffffffffffffffffffffffff1602179055505050565b600460009054906101000a900473ffffffffffffffffffffffffffffffffffffffff1681565b60025481565b60066020528060005260406000206000915090505481565b60003382604051602001610bd892919061158f565b604051602081830303815290604052805190602001209050919050565b60038181548110610c0557600080fd5b906000526020600020016000915054906101000a900473ffffffffffffffffffffffffffffffffffffffff1681565b5080546000825590600052602060002090810190610c529190610c55565b50565b5b80821115610c6e576000816000905550600101610c56565b5090565b6000819050919050565b610c8581610c72565b82525050565b6000602082019050610ca06000830184610c7c565b92915050565b60008115159050919050565b610cbb81610ca6565b82525050565b6000602082019050610cd66000830184610cb2565b92915050565b600080fd5b6000819050919050565b610cf481610ce1565b8114610cff57600080fd5b50565b600081359050610d1181610ceb565b92915050565b600060208284031215610d2d57610d2c610cdc565b5b6000610d3b84828501610d02565b91505092915050565b610d4d81610c72565b8114610d5857600080fd5b50565b600081359050610d6a81610d44565b92915050565b600060208284031215610d8657610d85610cdc565b5b6000610d9484828501610d5b565b91505092915050565b600073ffffffffffffffffffffffffffffffffffffffff82169050919050565b6000610dc882610d9d565b9050919050565b610dd881610dbd565b82525050565b6000602082019050610df36000830184610dcf565b92915050565b610e0281610dbd565b8114610e0d57600080fd5b50565b600081359050610e1f81610df9565b92915050565b600060208284031215610e3b57610e3a610cdc565b5b6000610e4984828501610e10565b91505092915050565b610e5b81610ce1565b82525050565b6000602082019050610e766000830184610e52565b92915050565b7f4e487b7100000000000000000000000000000000000000000000000000000000600052603260045260246000fd5b7f4e487b7100000000000000000000000000000000000000000000000000000000600052601160045260246000fd5b6000610ee582610c72565b91507fffffffffffffffffffffffffffffffffffffffffffffffffffffffffffffffff8203610f1757610f16610eab565b5b600182019050919050565b600082825260208201905092915050565b7f596f75277265206e6f74207468652077696e6e65720000000000000000000000600082015250565b6000610f69601583610f22565b9150610f7482610f33565b602082019050919050565b60006020820190508181036000830152610f9881610f5c565b9050919050565b6000610faa82610c72565b9150610fb583610c72565b9250827fffffffffffffffffffffffffffffffffffffffffffffffffffffffffffffffff03821115610fea57610fe9610eab565b5b828201905092915050565b600081905092915050565b50565b6000611010600083610ff5565b915061101b82611000565b600082019050919050565b600061103182611003565b9150819050919050565b7f4661696c656420746f2073656e6420457468657220746f2077696e6e65720000600082015250565b6000611071601e83610f22565b915061107c8261103b565b602082019050919050565b600060208201905081810360008301526110a081611064565b9050919050565b7f6d73672e76616c75652073686f756c642062652067726561746572207468616e60008201527f206f7220657175616c20746f20302e3031206574686572000000000000000000602082015250565b6000611103603783610f22565b915061110e826110a7565b604082019050919050565b60006020820190508181036000830152611132816110f6565b9050919050565b7f636f6d6d6974206475726174696f6e206973206f766572000000000000000000600082015250565b600061116f601783610f22565b915061117a82611139565b602082019050919050565b6000602082019050818103600083015261119e81611162565b9050919050565b7f4e6f742079657420746f207069636b2077696e6e657200000000000000000000600082015250565b60006111db601683610f22565b91506111e6826111a5565b602082019050919050565b6000602082019050818103600083015261120a816111ce565b9050919050565b7f77696e6e657220697320616c7265616479207365740000000000000000000000600082015250565b6000611247601583610f22565b915061125282611211565b602082019050919050565b600060208201905081810360008301526112768161123a565b9050919050565b7f4e487b7100000000000000000000000000000000000000000000000000000000600052601260045260246000fd5b60006112b782610c72565b91506112c283610c72565b9250826112d2576112d161127d565b5b828206905092915050565b7f636f6d6d6974206475726174696f6e206973206e6f7420636c6f73656420796560008201527f7400000000000000000000000000000000000000000000000000000000000000602082015250565b6000611339602183610f22565b9150611344826112dd565b604082019050919050565b600060208201905081810360008301526113688161132c565b9050919050565b7f72657665616c206475726174696f6e20697320616c726561647920636c6f736560008201527f6400000000000000000000000000000000000000000000000000000000000000602082015250565b60006113cb602183610f22565b91506113d68261136f565b604082019050919050565b600060208201905081810360008301526113fa816113be565b9050919050565b7f596f7520616c72656164792072657665616c6564000000000000000000000000600082015250565b6000611437601483610f22565b915061144282611401565b602082019050919050565b600060208201905081810360008301526114668161142a565b9050919050565b7f636f6d6d6974206e6f74206d6174636865730000000000000000000000000000600082015250565b60006114a3601283610f22565b91506114ae8261146d565b602082019050919050565b600060208201905081810360008301526114d281611496565b9050919050565b6000819050919050565b6114f46114ef82610ce1565b6114d9565b82525050565b6000819050919050565b61151561151082610c72565b6114fa565b82525050565b600061152782856114e3565b6020820191506115378284611504565b6020820191508190509392505050565b60008160601b9050919050565b600061155f82611547565b9050919050565b600061157182611554565b9050919050565b61158961158482610dbd565b611566565b82525050565b600061159b8285611578565b6014820191506115ab8284611504565b602082019150819050939250505056fea26469706673582212202a18e03c21ce2b4d67561cb174acc520d07aa0202f729685337ee96e61550c3c64736f6c634300080f0033",
  "immutableReferences": {},
  "source": "// SPDX-License-Identifier: MIT\npragma solidity ^0.8.15;\n\ncontract CommitRevealLottery {\n    uint256 public commitCloses;\n    uint256 public revealCloses;\n    uint256 public constant DURATION = 4;\n\n    uint256 public lotteryId;\n    address[] public players;\n    address public winner;\n    bytes32 seed;\n    mapping (address => bytes32) public commitments;\n    mapping (uint256 => address) public lotteryHistory;\n\n    constructor() {\n        commitCloses = block.number + DURATION;\n        revealCloses = commitCloses + DURATION;\n    }\n\n    function getBalance() public view returns (uint256) {\n        return address(this).balance;\n    }\n\n    function enter(bytes32 commitment) public payable {\n        require(msg.value >= .01 ether, \"msg.value should be greater than or equal to 0.01 ether\");\n        require(block.number < commitCloses, \"commit duration is over\");\n        \n        commitments[msg.sender] = commitment;\n    }\n\n    function createCommitment(uint256 secret) public view returns (bytes32) {\n        return keccak256(abi.encodePacked(msg.sender, secret));\n    }\n\n    function isAlreadyRevealed() public view returns (bool) {\n        for (uint256 i; i < players.length; i++) {\n            if (msg.sender == players[i]) return true;\n        }\n        return false;\n    }\n\n    function reveal(uint256 secret) public {\n        require(block.number >= commitCloses, \"commit duration is not closed yet\");\n        require(block.number < revealCloses, \"reveal duration is already closed\");\n        require(!isAlreadyRevealed(), \"You already revealed\");\n        \n        bytes32 commit = createCommitment(secret);\n        require(commit == commitments[msg.sender], \"commit not matches\");\n        \n        seed = keccak256(abi.encodePacked(seed, secret));\n        players.push(msg.sender);\n    }\n\n    function pickWinner() public {\n        require(block.number >= revealCloses, \"Not yet to pick winner\");\n        require(winner == address(0), \"winner is already set\");\n\n        winner = players[uint256(seed) % players.length];\n\n        lotteryHistory[lotteryId] = winner;\n        lotteryId++;\n    }\n\n    function withdrawPrize() public {\n        require(msg.sender == winner, \"You're not the winner\");\n\n        // initialize for next phase\n        delete winner;\n        for (uint256 i = 0; i < players.length; i++) {\n            delete commitments[players[i]];\n        }\n        delete players;\n        delete seed;\n\n        commitCloses = block.number + DURATION;\n        revealCloses = commitCloses + DURATION;\n\n        (bool success, ) = payable(msg.sender).call{ value: address(this).balance }(\"\");\n        require(success, \"Failed to send Ether to winner\");\n    }\n}",
  "sourcePath": "/Users/chunjunghyun/junghyun/fastcampus/gambling_dapp___/ch3/lottery-truffle/contracts/CommitRevealLottery.sol",
  "compiler": {
    "name": "solc",
    "version": "0.8.15+commit.e14f2714.Emscripten.clang"
  },
  "schemaVersion": "3.4.10",
  "updatedAt": "2022-10-30T15:01:59.937Z",
  "devdoc": {
    "kind": "dev",
    "methods": {},
    "version": 1
  },
  "userdoc": {
    "kind": "user",
    "methods": {},
    "version": 1
  }
}