{
  "contractName": "LotteryV2",
  "abi": [
    {
      "inputs": [
        {
          "internalType": "uint64",
          "name": "subscriptionId",
          "type": "uint64"
        }
      ],
      "stateMutability": "nonpayable",
      "type": "constructor"
    },
    {
      "inputs": [
        {
          "internalType": "address",
          "name": "have",
          "type": "address"
        },
        {
          "internalType": "address",
          "name": "want",
          "type": "address"
        }
      ],
      "name": "OnlyCoordinatorCanFulfill",
      "type": "error"
    },
    {
      "inputs": [
        {
          "internalType": "uint256",
          "name": "",
          "type": "uint256"
        }
      ],
      "name": "lotteryHistory",
      "outputs": [
        {
          "internalType": "address",
          "name": "",
          "type": "address"
        }
      ],
      "stateMutability": "view",
      "type": "function"
    },
    {
      "inputs": [],
      "name": "lotteryId",
      "outputs": [
        {
          "internalType": "uint256",
          "name": "",
          "type": "uint256"
        }
      ],
      "stateMutability": "view",
      "type": "function"
    },
    {
      "inputs": [],
      "name": "owner",
      "outputs": [
        {
          "internalType": "address",
          "name": "",
          "type": "address"
        }
      ],
      "stateMutability": "view",
      "type": "function"
    },
    {
      "inputs": [
        {
          "internalType": "uint256",
          "name": "",
          "type": "uint256"
        }
      ],
      "name": "players",
      "outputs": [
        {
          "internalType": "address payable",
          "name": "",
          "type": "address"
        }
      ],
      "stateMutability": "view",
      "type": "function"
    },
    {
      "inputs": [
        {
          "internalType": "uint256",
          "name": "requestId",
          "type": "uint256"
        },
        {
          "internalType": "uint256[]",
          "name": "randomWords",
          "type": "uint256[]"
        }
      ],
      "name": "rawFulfillRandomWords",
      "outputs": [],
      "stateMutability": "nonpayable",
      "type": "function"
    },
    {
      "inputs": [
        {
          "internalType": "uint256",
          "name": "",
          "type": "uint256"
        }
      ],
      "name": "s_randomWords",
      "outputs": [
        {
          "internalType": "uint256",
          "name": "",
          "type": "uint256"
        }
      ],
      "stateMutability": "view",
      "type": "function"
    },
    {
      "inputs": [],
      "name": "s_requestId",
      "outputs": [
        {
          "internalType": "uint256",
          "name": "",
          "type": "uint256"
        }
      ],
      "stateMutability": "view",
      "type": "function"
    },
    {
      "inputs": [],
      "name": "getBalance",
      "outputs": [
        {
          "internalType": "uint256",
          "name": "",
          "type": "uint256"
        }
      ],
      "stateMutability": "view",
      "type": "function"
    },
    {
      "inputs": [],
      "name": "getPlayers",
      "outputs": [
        {
          "internalType": "address payable[]",
          "name": "",
          "type": "address[]"
        }
      ],
      "stateMutability": "view",
      "type": "function"
    },
    {
      "inputs": [],
      "name": "enter",
      "outputs": [],
      "stateMutability": "payable",
      "type": "function"
    },
    {
      "inputs": [],
      "name": "pickWinner",
      "outputs": [],
      "stateMutability": "nonpayable",
      "type": "function"
    }
  ],
  "bytecode": "0x60a0604052732ca8e0c643bde4c2e08ab1fa0da3401adad7734d600560006101000a81548173ffffffffffffffffffffffffffffffffffffffff021916908373ffffffffffffffffffffffffffffffffffffffff1602179055507f79d3d8832d904592c0bf9818b621522c988bb8b0c05cdc3b15aea1b6e8db0c1560001b600655620f4240600760006101000a81548163ffffffff021916908363ffffffff1602179055506003600760046101000a81548161ffff021916908361ffff1602179055506001600760066101000a81548163ffffffff021916908363ffffffff160217905550348015620000f157600080fd5b50604051620015013803806200150183398181016040528101906200011791906200028c565b600560009054906101000a900473ffffffffffffffffffffffffffffffffffffffff168073ffffffffffffffffffffffffffffffffffffffff1660808173ffffffffffffffffffffffffffffffffffffffff168152505050336000806101000a81548173ffffffffffffffffffffffffffffffffffffffff021916908373ffffffffffffffffffffffffffffffffffffffff160217905550600560009054906101000a900473ffffffffffffffffffffffffffffffffffffffff16600460006101000a81548173ffffffffffffffffffffffffffffffffffffffff021916908373ffffffffffffffffffffffffffffffffffffffff16021790555080600460146101000a81548167ffffffffffffffff021916908367ffffffffffffffff16021790555050620002be565b600080fd5b600067ffffffffffffffff82169050919050565b620002668162000247565b81146200027257600080fd5b50565b60008151905062000286816200025b565b92915050565b600060208284031215620002a557620002a462000242565b5b6000620002b58482850162000275565b91505092915050565b608051611220620002e16000396000818161028301526102d701526112206000f3fe60806040526004361061009c5760003560e01c80638da5cb5b116100645780638da5cb5b14610174578063e580f47b1461019f578063e89e106a146101ca578063e97dcb62146101f5578063f6eaffc8146101ff578063f71d96cb1461023c5761009c565b806312065fe0146100a15780631fe543e3146100cc5780635d495aea146100f55780636d6fe2301461010c5780638b5b9ccc14610149575b600080fd5b3480156100ad57600080fd5b506100b6610279565b6040516100c39190610a38565b60405180910390f35b3480156100d857600080fd5b506100f360048036038101906100ee9190610bec565b610281565b005b34801561010157600080fd5b5061010a610341565b005b34801561011857600080fd5b50610133600480360381019061012e9190610c48565b6103d9565b6040516101409190610cb6565b60405180910390f35b34801561015557600080fd5b5061015e61040c565b60405161016b9190610da1565b60405180910390f35b34801561018057600080fd5b5061018961049a565b6040516101969190610cb6565b60405180910390f35b3480156101ab57600080fd5b506101b46104be565b6040516101c19190610a38565b60405180910390f35b3480156101d657600080fd5b506101df6104c4565b6040516101ec9190610a38565b60405180910390f35b6101fd6104ca565b005b34801561020b57600080fd5b5061022660048036038101906102219190610c48565b610579565b6040516102339190610a38565b60405180910390f35b34801561024857600080fd5b50610263600480360381019061025e9190610c48565b61059d565b6040516102709190610dd2565b60405180910390f35b600047905090565b7f000000000000000000000000000000000000000000000000000000000000000073ffffffffffffffffffffffffffffffffffffffff163373ffffffffffffffffffffffffffffffffffffffff161461033357337f00000000000000000000000000000000000000000000000000000000000000006040517f1cf993f400000000000000000000000000000000000000000000000000000000815260040161032a929190610ded565b60405180910390fd5b61033d82826105dc565b5050565b60008054906101000a900473ffffffffffffffffffffffffffffffffffffffff1673ffffffffffffffffffffffffffffffffffffffff163373ffffffffffffffffffffffffffffffffffffffff16146103cf576040517f08c379a00000000000000000000000000000000000000000000000000000000081526004016103c690610e73565b60405180910390fd5b6103d76105ff565b565b60036020528060005260406000206000915054906101000a900473ffffffffffffffffffffffffffffffffffffffff1681565b6060600180548060200260200160405190810160405280929190818152602001828054801561049057602002820191906000526020600020905b8160009054906101000a900473ffffffffffffffffffffffffffffffffffffffff1673ffffffffffffffffffffffffffffffffffffffff1681526020019060010190808311610446575b5050505050905090565b60008054906101000a900473ffffffffffffffffffffffffffffffffffffffff1681565b60025481565b60095481565b662386f26fc10000341015610514576040517f08c379a000000000000000000000000000000000000000000000000000000000815260040161050b90610f05565b60405180910390fd5b6001339080600181540180825580915050600190039060005260206000200160009091909190916101000a81548173ffffffffffffffffffffffffffffffffffffffff021916908373ffffffffffffffffffffffffffffffffffffffff160217905550565b6008818154811061058957600080fd5b906000526020600020016000915090505481565b600181815481106105ad57600080fd5b906000526020600020016000915054906101000a900473ffffffffffffffffffffffffffffffffffffffff1681565b80600890805190602001906105f292919061092b565b506105fb6106f9565b5050565b600460009054906101000a900473ffffffffffffffffffffffffffffffffffffffff1673ffffffffffffffffffffffffffffffffffffffff16635d3b1d30600654600460149054906101000a900467ffffffffffffffff16600760049054906101000a900461ffff16600760009054906101000a900463ffffffff16600760069054906101000a900463ffffffff166040518663ffffffff1660e01b81526004016106ae959493929190610f9d565b6020604051808303816000875af11580156106cd573d6000803e3d6000fd5b505050506040513d601f19601f820116820180604052508101906106f19190611005565b600981905550565b6000600180549050600860008154811061071657610715611032565b5b906000526020600020015461072b9190611090565b90506001818154811061074157610740611032565b5b9060005260206000200160009054906101000a900473ffffffffffffffffffffffffffffffffffffffff1660036000600254815260200190815260200160002060006101000a81548173ffffffffffffffffffffffffffffffffffffffff021916908373ffffffffffffffffffffffffffffffffffffffff160217905550600260008154809291906107d2906110f0565b91905055506000600182815481106107ed576107ec611032565b5b9060005260206000200160009054906101000a900473ffffffffffffffffffffffffffffffffffffffff169050600067ffffffffffffffff81111561083557610834610aa9565b5b6040519080825280602002602001820160405280156108635781602001602082028036833780820191505090505b5060019080519060200190610879929190610978565b5060008173ffffffffffffffffffffffffffffffffffffffff16476040516108a090611169565b60006040518083038185875af1925050503d80600081146108dd576040519150601f19603f3d011682016040523d82523d6000602084013e6108e2565b606091505b5050905080610926576040517f08c379a000000000000000000000000000000000000000000000000000000000815260040161091d906111ca565b60405180910390fd5b505050565b828054828255906000526020600020908101928215610967579160200282015b8281111561096657825182559160200191906001019061094b565b5b5090506109749190610a02565b5090565b8280548282559060005260206000209081019282156109f1579160200282015b828111156109f05782518260006101000a81548173ffffffffffffffffffffffffffffffffffffffff021916908373ffffffffffffffffffffffffffffffffffffffff16021790555091602001919060010190610998565b5b5090506109fe9190610a02565b5090565b5b80821115610a1b576000816000905550600101610a03565b5090565b6000819050919050565b610a3281610a1f565b82525050565b6000602082019050610a4d6000830184610a29565b92915050565b6000604051905090565b600080fd5b600080fd5b610a7081610a1f565b8114610a7b57600080fd5b50565b600081359050610a8d81610a67565b92915050565b600080fd5b6000601f19601f8301169050919050565b7f4e487b7100000000000000000000000000000000000000000000000000000000600052604160045260246000fd5b610ae182610a98565b810181811067ffffffffffffffff82111715610b0057610aff610aa9565b5b80604052505050565b6000610b13610a53565b9050610b1f8282610ad8565b919050565b600067ffffffffffffffff821115610b3f57610b3e610aa9565b5b602082029050602081019050919050565b600080fd5b6000610b68610b6384610b24565b610b09565b90508083825260208201905060208402830185811115610b8b57610b8a610b50565b5b835b81811015610bb45780610ba08882610a7e565b845260208401935050602081019050610b8d565b5050509392505050565b600082601f830112610bd357610bd2610a93565b5b8135610be3848260208601610b55565b91505092915050565b60008060408385031215610c0357610c02610a5d565b5b6000610c1185828601610a7e565b925050602083013567ffffffffffffffff811115610c3257610c31610a62565b5b610c3e85828601610bbe565b9150509250929050565b600060208284031215610c5e57610c5d610a5d565b5b6000610c6c84828501610a7e565b91505092915050565b600073ffffffffffffffffffffffffffffffffffffffff82169050919050565b6000610ca082610c75565b9050919050565b610cb081610c95565b82525050565b6000602082019050610ccb6000830184610ca7565b92915050565b600081519050919050565b600082825260208201905092915050565b6000819050602082019050919050565b6000610d0882610c75565b9050919050565b610d1881610cfd565b82525050565b6000610d2a8383610d0f565b60208301905092915050565b6000602082019050919050565b6000610d4e82610cd1565b610d588185610cdc565b9350610d6383610ced565b8060005b83811015610d94578151610d7b8882610d1e565b9750610d8683610d36565b925050600181019050610d67565b5085935050505092915050565b60006020820190508181036000830152610dbb8184610d43565b905092915050565b610dcc81610cfd565b82525050565b6000602082019050610de76000830184610dc3565b92915050565b6000604082019050610e026000830185610ca7565b610e0f6020830184610ca7565b9392505050565b600082825260208201905092915050565b7f796f75277265206e6f74206f776e657200000000000000000000000000000000600082015250565b6000610e5d601083610e16565b9150610e6882610e27565b602082019050919050565b60006020820190508181036000830152610e8c81610e50565b9050919050565b7f6d73672e76616c75652073686f756c642062652067726561746572207468616e60008201527f206f7220657175616c20746f20302e3031206574686572000000000000000000602082015250565b6000610eef603783610e16565b9150610efa82610e93565b604082019050919050565b60006020820190508181036000830152610f1e81610ee2565b9050919050565b6000819050919050565b610f3881610f25565b82525050565b600067ffffffffffffffff82169050919050565b610f5b81610f3e565b82525050565b600061ffff82169050919050565b610f7881610f61565b82525050565b600063ffffffff82169050919050565b610f9781610f7e565b82525050565b600060a082019050610fb26000830188610f2f565b610fbf6020830187610f52565b610fcc6040830186610f6f565b610fd96060830185610f8e565b610fe66080830184610f8e565b9695505050505050565b600081519050610fff81610a67565b92915050565b60006020828403121561101b5761101a610a5d565b5b600061102984828501610ff0565b91505092915050565b7f4e487b7100000000000000000000000000000000000000000000000000000000600052603260045260246000fd5b7f4e487b7100000000000000000000000000000000000000000000000000000000600052601260045260246000fd5b600061109b82610a1f565b91506110a683610a1f565b9250826110b6576110b5611061565b5b828206905092915050565b7f4e487b7100000000000000000000000000000000000000000000000000000000600052601160045260246000fd5b60006110fb82610a1f565b91507fffffffffffffffffffffffffffffffffffffffffffffffffffffffffffffffff820361112d5761112c6110c1565b5b600182019050919050565b600081905092915050565b50565b6000611153600083611138565b915061115e82611143565b600082019050919050565b600061117482611146565b9150819050919050565b7f4661696c656420746f2073656e64204574686572000000000000000000000000600082015250565b60006111b4601483610e16565b91506111bf8261117e565b602082019050919050565b600060208201905081810360008301526111e3816111a7565b905091905056fea264697066735822122088c383795d1381176b0f6a3496653078648d94147e5cf34ed95ce709c43aa30564736f6c634300080f0033",
  "immutableReferences": {
    "10": [
      {
        "length": 32,
        "start": 643
      },
      {
        "length": 32,
        "start": 727
      }
    ]
  },
  "source": "// SPDX-License-Identifier: MIT\npragma solidity ^0.8.15;\n\nimport \"@chainlink/contracts/src/v0.8/interfaces/VRFCoordinatorV2Interface.sol\";\nimport \"@chainlink/contracts/src/v0.8/VRFConsumerBaseV2.sol\";\n\ncontract LotteryV2 is VRFConsumerBaseV2 {\n    address public owner;\n    address payable[] public players;\n    uint256 public lotteryId;\n    mapping(uint256 => address) public lotteryHistory;\n\n    VRFCoordinatorV2Interface COORDINATOR;\n\n    // Your subscription ID.\n    uint64 s_subscriptionId;\n\n    // Goerli coordinator. For other networks,\n    // see https://docs.chain.link/docs/vrf-contracts/#configurations\n    address vrfCoordinator = 0x2Ca8E0C643bDe4C2E08ab1fA0da3401AdAD7734D;\n\n    // The gas lane to use, which specifies the maximum gas price to bump to.\n    // For a list of available gas lanes on each network,\n    // see https://docs.chain.link/docs/vrf-contracts/#configurations\n    bytes32 keyHash = 0x79d3d8832d904592c0bf9818b621522c988bb8b0c05cdc3b15aea1b6e8db0c15;\n\n    // Depends on the number of requested values that you want sent to the\n    // fulfillRandomWords() function. Storing each word costs about 20,000 gas,\n    // so 100,000 is a safe default for this example contract. Test and adjust\n    // this limit based on the network that you select, the size of the request,\n    // and the processing of the callback request in the fulfillRandomWords()\n    // function.\n    uint32 callbackGasLimit = 1000000;\n\n    // The default is 3, but you can set this higher.\n    uint16 requestConfirmations = 3;\n\n    // For this example, retrieve 2 random values in one request.\n    // Cannot exceed VRFCoordinatorV2.MAX_NUM_WORDS.\n    uint32 numWords = 1;\n\n    uint256[] public s_randomWords;\n    uint256 public s_requestId;\n\n    constructor(uint64 subscriptionId) VRFConsumerBaseV2(vrfCoordinator) {\n        owner = msg.sender;\n        COORDINATOR = VRFCoordinatorV2Interface(vrfCoordinator);\n        s_subscriptionId = subscriptionId;\n    }\n\n    function getBalance() public view returns (uint256) {\n        return address(this).balance;\n    }\n\n    function getPlayers() public view returns (address payable[] memory) {\n        return players;\n    }\n\n    function enter() public payable {\n        require(msg.value >= .01 ether, \"msg.value should be greater than or equal to 0.01 ether\");\n        players.push(payable(msg.sender));\n    }\n\n    // Assumes the subscription is funded sufficiently.\n    function _requestRandomWords() internal {\n        // Will revert if subscription is not set and funded.\n        s_requestId = COORDINATOR.requestRandomWords(\n            keyHash,\n            s_subscriptionId,\n            requestConfirmations,\n            callbackGasLimit,\n            numWords\n        );\n    }\n\n    function fulfillRandomWords(\n        uint256, /* requestId */\n        uint256[] memory randomWords\n    ) internal override {\n        s_randomWords = randomWords;\n        _prizeWinner();\n    }\n\n    function pickWinner() public onlyOwner {\n        _requestRandomWords();\n    }\n\n    function _prizeWinner() internal {\n        uint256 index = s_randomWords[0] % players.length;\n\n        lotteryHistory[lotteryId] = players[index];\n        lotteryId++;\n\n        address payable winner = players[index];\n        players = new address payable[](0);\n\n        (bool success, ) = winner.call{value: address(this).balance}(\"\");\n        require(success, \"Failed to send Ether\");\n    }\n\n    modifier onlyOwner {\n        require(msg.sender == owner, \"you're not owner\");\n        _;\n    }\n}",
  "sourcePath": "/Users/chunjunghyun/junghyun/fastcampus/gambling_dapp___/ch3/lottery-truffle/contracts/LotteryV2.sol",
  "compiler": {
    "name": "solc",
    "version": "0.8.15+commit.e14f2714.Emscripten.clang"
  },
  "schemaVersion": "3.4.10",
  "updatedAt": "2022-10-30T15:01:59.946Z",
  "devdoc": {
    "kind": "dev",
    "methods": {},
    "version": 1
  },
  "userdoc": {
    "kind": "user",
    "methods": {},
    "version": 1
  }
}